{
    "tests/prague/eip7623_increase_calldata_cost/test_execution_gas.py::TestGasConsumptionBelowDataFloor::test_gas_consumption_below_data_floor[fork_Prague-state_test-exact_gas-type_0_protected]": {
        "env": {
            "currentCoinbase": "0x2adc25665018aa1fe0e6bc666dac8fc2697ff9ba",
            "currentGasLimit": "0x016345785d8a0000",
            "currentNumber": "0x01",
            "currentTimestamp": "0x03e8",
            "currentRandom": "0x0000000000000000000000000000000000000000000000000000000000000000",
            "currentDifficulty": "0x00",
            "currentBaseFee": "0x07",
            "currentExcessBlobGas": "0x00"
        },
        "pre": {
            "0xa94f5374fce5edbc8e2a8697c15331677e6ebf0b": {
                "nonce": "0x00",
                "balance": "0x3635c9adc5dea00000",
                "code": "0x",
                "storage": {}
            },
            "0x0000000000000000000000000000000000001000": {
                "nonce": "0x01",
                "balance": "0x00",
                "code": "0x5b5b5b5b5b00",
                "storage": {}
            }
        },
        "transaction": {
            "nonce": "0x00",
            "gasPrice": "0x0a",
            "gasLimit": [
                "0x5212"
            ],
            "to": "0x0000000000000000000000000000000000001000",
            "value": [
                "0x00"
            ],
            "data": [
                "0x00"
            ],
            "sender": "0xa94f5374fce5edbc8e2a8697c15331677e6ebf0b",
            "secretKey": "0x45a915e4d060149eb4365960e6a7a45f334393093061116b197e3240065ff2d8"
        },
        "post": {
            "Prague": [
                {
                    "hash": "0x1f3b5a1877506a046425778df9ec9ede86f46920b6925ca7532542965fe624be",
                    "logs": "0x1dcc4de8dec75d7aab85b567b6ccd41ad312451b948a7413f0a142fd40d49347",
                    "txbytes": "0xf860800a825212940000000000000000000000000000000000001000800081eca04b634f80bdc4944f57d2d2d3636946453b12336b8dda37cf96b32927041688c3a07feb94e7f0831ded19fcf98adbf2d55aa85a9a8b96e553188cb8c45d92cf9da0",
                    "indexes": {
                        "data": 0,
                        "gas": 0,
                        "value": 0
                    },
                    "state": {
                        "0xa94f5374fce5edbc8e2a8697c15331677e6ebf0b": {
                            "nonce": "0x01",
                            "balance": "0x3635c9adc5de9ccb4c",
                            "code": "0x",
                            "storage": {}
                        },
                        "0x0000000000000000000000000000000000001000": {
                            "nonce": "0x01",
                            "balance": "0x00",
                            "code": "0x5b5b5b5b5b00",
                            "storage": {}
                        },
                        "0x2adc25665018aa1fe0e6bc666dac8fc2697ff9ba": {
                            "nonce": "0x00",
                            "balance": "0xf636",
                            "code": "0x",
                            "storage": {}
                        }
                    }
                }
            ]
        },
        "config": {
            "blobSchedule": {
                "Cancun": {
                    "target": "0x03",
                    "max": "0x06",
                    "baseFeeUpdateFraction": "0x32f0ed"
                },
                "Prague": {
                    "target": "0x06",
                    "max": "0x09",
                    "baseFeeUpdateFraction": "0x4c6964"
                }
            }
        },
        "_info": {
            "hash": "0x763a92b8e2f70e6b0ca36a1a3f13e171749a56c9a35df5a2428e52f78d8228c3",
            "comment": "`execution-spec-tests` generated test",
            "filling-transition-tool": "Nethermind EVM version: 1.0.0.0",
            "description": "Test class documentation:\nTest gas consumption barely below the floor data cost (1 gas below).\n\nTest function documentation:\nTest executing a transaction that almost consumes the floor data cost.",
            "url": "https://github.com/ethereum/execution-spec-tests/blob/211edc30a7a50bf91edaa3e77c908d8866717ff3/tests/prague/eip7623_increase_calldata_cost/test_execution_gas.py#L132",
            "fixture_format": "state_test",
            "reference-spec": "https://github.com/ethereum/EIPs/blob/master/EIPS/eip-7623.md",
            "reference-spec-version": "9104d079c04737b1fec5f7150715f024d8028558"
        }
    },
    "tests/prague/eip7623_increase_calldata_cost/test_execution_gas.py::TestGasConsumptionBelowDataFloor::test_gas_consumption_below_data_floor[fork_Prague-state_test-exact_gas-type_0_unprotected]": {
        "env": {
            "currentCoinbase": "0x2adc25665018aa1fe0e6bc666dac8fc2697ff9ba",
            "currentGasLimit": "0x016345785d8a0000",
            "currentNumber": "0x01",
            "currentTimestamp": "0x03e8",
            "currentRandom": "0x0000000000000000000000000000000000000000000000000000000000000000",
            "currentDifficulty": "0x00",
            "currentBaseFee": "0x07",
            "currentExcessBlobGas": "0x00"
        },
        "pre": {
            "0xa94f5374fce5edbc8e2a8697c15331677e6ebf0b": {
                "nonce": "0x00",
                "balance": "0x3635c9adc5dea00000",
                "code": "0x",
                "storage": {}
            },
            "0x0000000000000000000000000000000000001000": {
                "nonce": "0x01",
                "balance": "0x00",
                "code": "0x5b5b5b5b5b00",
                "storage": {}
            }
        },
        "transaction": {
            "nonce": "0x00",
            "gasPrice": "0x0a",
            "gasLimit": [
                "0x5212"
            ],
            "to": "0x0000000000000000000000000000000000001000",
            "value": [
                "0x00"
            ],
            "data": [
                "0x00"
            ],
            "sender": "0xa94f5374fce5edbc8e2a8697c15331677e6ebf0b",
            "secretKey": "0x45a915e4d060149eb4365960e6a7a45f334393093061116b197e3240065ff2d8"
        },
        "post": {
            "Prague": [
                {
                    "hash": "0x1f3b5a1877506a046425778df9ec9ede86f46920b6925ca7532542965fe624be",
                    "logs": "0x1dcc4de8dec75d7aab85b567b6ccd41ad312451b948a7413f0a142fd40d49347",
                    "txbytes": "0xf85f800a82521294000000000000000000000000000000000000100080001ca0b3f08e968f7c21a450b6364b0b371a8d620c03c2d6fece9b78dfa52460655d23a061d0bd0fdf295dd09f1e725fe97f7dc4a54029ef8057e5432bb63980667df167",
                    "indexes": {
                        "data": 0,
                        "gas": 0,
                        "value": 0
                    },
                    "state": {
                        "0xa94f5374fce5edbc8e2a8697c15331677e6ebf0b": {
                            "nonce": "0x01",
                            "balance": "0x3635c9adc5de9ccb4c",
                            "code": "0x",
                            "storage": {}
                        },
                        "0x0000000000000000000000000000000000001000": {
                            "nonce": "0x01",
                            "balance": "0x00",
                            "code": "0x5b5b5b5b5b00",
                            "storage": {}
                        },
                        "0x2adc25665018aa1fe0e6bc666dac8fc2697ff9ba": {
                            "nonce": "0x00",
                            "balance": "0xf636",
                            "code": "0x",
                            "storage": {}
                        }
                    }
                }
            ]
        },
        "config": {
            "blobSchedule": {
                "Cancun": {
                    "target": "0x03",
                    "max": "0x06",
                    "baseFeeUpdateFraction": "0x32f0ed"
                },
                "Prague": {
                    "target": "0x06",
                    "max": "0x09",
                    "baseFeeUpdateFraction": "0x4c6964"
                }
            }
        },
        "_info": {
            "hash": "0xc4bf4e45514dbd64ebcb9f353cd323fe16749d1f09656a01d02e5a53ebe6086a",
            "comment": "`execution-spec-tests` generated test",
            "filling-transition-tool": "Nethermind EVM version: 1.0.0.0",
            "description": "Test class documentation:\nTest gas consumption barely below the floor data cost (1 gas below).\n\nTest function documentation:\nTest executing a transaction that almost consumes the floor data cost.",
            "url": "https://github.com/ethereum/execution-spec-tests/blob/211edc30a7a50bf91edaa3e77c908d8866717ff3/tests/prague/eip7623_increase_calldata_cost/test_execution_gas.py#L132",
            "fixture_format": "state_test",
            "reference-spec": "https://github.com/ethereum/EIPs/blob/master/EIPS/eip-7623.md",
            "reference-spec-version": "9104d079c04737b1fec5f7150715f024d8028558"
        }
    },
    "tests/prague/eip7623_increase_calldata_cost/test_execution_gas.py::TestGasConsumptionBelowDataFloor::test_gas_consumption_below_data_floor[fork_Prague-state_test-exact_gas-type_1]": {
        "env": {
            "currentCoinbase": "0x2adc25665018aa1fe0e6bc666dac8fc2697ff9ba",
            "currentGasLimit": "0x016345785d8a0000",
            "currentNumber": "0x01",
            "currentTimestamp": "0x03e8",
            "currentRandom": "0x0000000000000000000000000000000000000000000000000000000000000000",
            "currentDifficulty": "0x00",
            "currentBaseFee": "0x07",
            "currentExcessBlobGas": "0x00"
        },
        "pre": {
            "0xa94f5374fce5edbc8e2a8697c15331677e6ebf0b": {
                "nonce": "0x00",
                "balance": "0x3635c9adc5dea00000",
                "code": "0x",
                "storage": {}
            },
            "0x0000000000000000000000000000000000001000": {
                "nonce": "0x01",
                "balance": "0x00",
                "code": "0x5b5b5b5b5b00",
                "storage": {}
            }
        },
        "transaction": {
            "nonce": "0x00",
            "gasPrice": "0x0a",
            "gasLimit": [
                "0x5212"
            ],
            "to": "0x0000000000000000000000000000000000001000",
            "value": [
                "0x00"
            ],
            "data": [
                "0x00"
            ],
            "accessLists": [
                []
            ],
            "sender": "0xa94f5374fce5edbc8e2a8697c15331677e6ebf0b",
            "secretKey": "0x45a915e4d060149eb4365960e6a7a45f334393093061116b197e3240065ff2d8"
        },
        "post": {
            "Prague": [
                {
                    "hash": "0x1f3b5a1877506a046425778df9ec9ede86f46920b6925ca7532542965fe624be",
                    "logs": "0x1dcc4de8dec75d7aab85b567b6ccd41ad312451b948a7413f0a142fd40d49347",
                    "txbytes": "0x01f86164800a8252129400000000000000000000000000000000000010008000c080a0487af20d323290c99e78e9bceabf75551ea1a055ae8268190bcd57e14c922a67a07fb08795a3c59dbec63016e529c1bf1f785fa95d224af424a0f37571cf99b08e",
                    "indexes": {
                        "data": 0,
                        "gas": 0,
                        "value": 0
                    },
                    "state": {
                        "0xa94f5374fce5edbc8e2a8697c15331677e6ebf0b": {
                            "nonce": "0x01",
                            "balance": "0x3635c9adc5de9ccb4c",
                            "code": "0x",
                            "storage": {}
                        },
                        "0x0000000000000000000000000000000000001000": {
                            "nonce": "0x01",
                            "balance": "0x00",
                            "code": "0x5b5b5b5b5b00",
                            "storage": {}
                        },
                        "0x2adc25665018aa1fe0e6bc666dac8fc2697ff9ba": {
                            "nonce": "0x00",
                            "balance": "0xf636",
                            "code": "0x",
                            "storage": {}
                        }
                    }
                }
            ]
        },
        "config": {
            "blobSchedule": {
                "Cancun": {
                    "target": "0x03",
                    "max": "0x06",
                    "baseFeeUpdateFraction": "0x32f0ed"
                },
                "Prague": {
                    "target": "0x06",
                    "max": "0x09",
                    "baseFeeUpdateFraction": "0x4c6964"
                }
            }
        },
        "_info": {
            "hash": "0x317dc92c49cbd3d7a87e21f9cc5bc401df2174adaab52224af9cb20b9dd27439",
            "comment": "`execution-spec-tests` generated test",
            "filling-transition-tool": "Nethermind EVM version: 1.0.0.0",
            "description": "Test class documentation:\nTest gas consumption barely below the floor data cost (1 gas below).\n\nTest function documentation:\nTest executing a transaction that almost consumes the floor data cost.",
            "url": "https://github.com/ethereum/execution-spec-tests/blob/211edc30a7a50bf91edaa3e77c908d8866717ff3/tests/prague/eip7623_increase_calldata_cost/test_execution_gas.py#L132",
            "fixture_format": "state_test",
            "reference-spec": "https://github.com/ethereum/EIPs/blob/master/EIPS/eip-7623.md",
            "reference-spec-version": "9104d079c04737b1fec5f7150715f024d8028558"
        }
    },
    "tests/prague/eip7623_increase_calldata_cost/test_execution_gas.py::TestGasConsumptionBelowDataFloor::test_gas_consumption_below_data_floor[fork_Prague-state_test-exact_gas-type_2]": {
        "env": {
            "currentCoinbase": "0x2adc25665018aa1fe0e6bc666dac8fc2697ff9ba",
            "currentGasLimit": "0x016345785d8a0000",
            "currentNumber": "0x01",
            "currentTimestamp": "0x03e8",
            "currentRandom": "0x0000000000000000000000000000000000000000000000000000000000000000",
            "currentDifficulty": "0x00",
            "currentBaseFee": "0x07",
            "currentExcessBlobGas": "0x00"
        },
        "pre": {
            "0xa94f5374fce5edbc8e2a8697c15331677e6ebf0b": {
                "nonce": "0x00",
                "balance": "0x3635c9adc5dea00000",
                "code": "0x",
                "storage": {}
            },
            "0x0000000000000000000000000000000000001000": {
                "nonce": "0x01",
                "balance": "0x00",
                "code": "0x5b5b5b5b5b00",
                "storage": {}
            }
        },
        "transaction": {
            "nonce": "0x00",
            "maxPriorityFeePerGas": "0x00",
            "maxFeePerGas": "0x07",
            "gasLimit": [
                "0x5212"
            ],
            "to": "0x0000000000000000000000000000000000001000",
            "value": [
                "0x00"
            ],
            "data": [
                "0x00"
            ],
            "accessLists": [
                []
            ],
            "sender": "0xa94f5374fce5edbc8e2a8697c15331677e6ebf0b",
            "secretKey": "0x45a915e4d060149eb4365960e6a7a45f334393093061116b197e3240065ff2d8"
        },
        "post": {
            "Prague": [
                {
                    "hash": "0xda664005a088941f3b75d3210cd5169e3c8eee5db53365eb2d5912a4a79f27b2",
                    "logs": "0x1dcc4de8dec75d7aab85b567b6ccd41ad312451b948a7413f0a142fd40d49347",
                    "txbytes": "0x02f862648080078252129400000000000000000000000000000000000010008000c001a00dba3016a30c372bb1d5fc09ddb80fa521354592fa19a3a4c959e0e0f329193fa05d175ffdf5866e0b93728cccc0093d5eb11bdfcaf26a487ce0907f0c2f650cc3",
                    "indexes": {
                        "data": 0,
                        "gas": 0,
                        "value": 0
                    },
                    "state": {
                        "0xa94f5374fce5edbc8e2a8697c15331677e6ebf0b": {
                            "nonce": "0x01",
                            "balance": "0x3635c9adc5de9dc182",
                            "code": "0x",
                            "storage": {}
                        },
                        "0x0000000000000000000000000000000000001000": {
                            "nonce": "0x01",
                            "balance": "0x00",
                            "code": "0x5b5b5b5b5b00",
                            "storage": {}
                        }
                    }
                }
            ]
        },
        "config": {
            "blobSchedule": {
                "Cancun": {
                    "target": "0x03",
                    "max": "0x06",
                    "baseFeeUpdateFraction": "0x32f0ed"
                },
                "Prague": {
                    "target": "0x06",
                    "max": "0x09",
                    "baseFeeUpdateFraction": "0x4c6964"
                }
            }
        },
        "_info": {
            "hash": "0x7d8a312962eaf6b3ecbc0eb55c58777b25f447dd64531ee3ded2d71044c1362a",
            "comment": "`execution-spec-tests` generated test",
            "filling-transition-tool": "Nethermind EVM version: 1.0.0.0",
            "description": "Test class documentation:\nTest gas consumption barely below the floor data cost (1 gas below).\n\nTest function documentation:\nTest executing a transaction that almost consumes the floor data cost.",
            "url": "https://github.com/ethereum/execution-spec-tests/blob/211edc30a7a50bf91edaa3e77c908d8866717ff3/tests/prague/eip7623_increase_calldata_cost/test_execution_gas.py#L132",
            "fixture_format": "state_test",
            "reference-spec": "https://github.com/ethereum/EIPs/blob/master/EIPS/eip-7623.md",
            "reference-spec-version": "9104d079c04737b1fec5f7150715f024d8028558"
        }
    },
    "tests/prague/eip7623_increase_calldata_cost/test_execution_gas.py::TestGasConsumptionBelowDataFloor::test_gas_consumption_below_data_floor[fork_Prague-state_test-exact_gas-type_3]": {
        "env": {
            "currentCoinbase": "0x2adc25665018aa1fe0e6bc666dac8fc2697ff9ba",
            "currentGasLimit": "0x016345785d8a0000",
            "currentNumber": "0x01",
            "currentTimestamp": "0x03e8",
            "currentRandom": "0x0000000000000000000000000000000000000000000000000000000000000000",
            "currentDifficulty": "0x00",
            "currentBaseFee": "0x07",
            "currentExcessBlobGas": "0x00"
        },
        "pre": {
            "0xa94f5374fce5edbc8e2a8697c15331677e6ebf0b": {
                "nonce": "0x00",
                "balance": "0x3635c9adc5dea00000",
                "code": "0x",
                "storage": {}
            },
            "0x0000000000000000000000000000000000001000": {
                "nonce": "0x01",
                "balance": "0x00",
                "code": "0x5b5b5b5b5b00",
                "storage": {}
            }
        },
        "transaction": {
            "nonce": "0x00",
            "maxPriorityFeePerGas": "0x00",
            "maxFeePerGas": "0x07",
            "gasLimit": [
                "0x5212"
            ],
            "to": "0x0000000000000000000000000000000000001000",
            "value": [
                "0x00"
            ],
            "data": [
                "0x00"
            ],
            "accessLists": [
                []
            ],
            "maxFeePerBlobGas": "0x01",
            "blobVersionedHashes": [
                "0x0100000000000000000000000000000000000000000000000000000000000001"
            ],
            "sender": "0xa94f5374fce5edbc8e2a8697c15331677e6ebf0b",
            "secretKey": "0x45a915e4d060149eb4365960e6a7a45f334393093061116b197e3240065ff2d8"
        },
        "post": {
            "Prague": [
                {
                    "hash": "0xe2a8adc8b7b7588829f0ffa33428ba646d8cb319a7792e062b436692f67e559e",
                    "logs": "0x1dcc4de8dec75d7aab85b567b6ccd41ad312451b948a7413f0a142fd40d49347",
                    "txbytes": "0x03f885648080078252129400000000000000000000000000000000000010008000c001e1a0010000000000000000000000000000000000000000000000000000000000000180a01d5f63a51fa3f03863432a8add13b4f5f1a9d25799a8dbca3d4edbfb4b1579f0a03b737a85018221c4bb56f520e8a95dffcfae227cff0d5997ed7ac026447ef647",
                    "indexes": {
                        "data": 0,
                        "gas": 0,
                        "value": 0
                    },
                    "state": {
                        "0xa94f5374fce5edbc8e2a8697c15331677e6ebf0b": {
                            "nonce": "0x01",
                            "balance": "0x3635c9adc5de9bc182",
                            "code": "0x",
                            "storage": {}
                        },
                        "0x0000000000000000000000000000000000001000": {
                            "nonce": "0x01",
                            "balance": "0x00",
                            "code": "0x5b5b5b5b5b00",
                            "storage": {}
                        }
                    }
                }
            ]
        },
        "config": {
            "blobSchedule": {
                "Cancun": {
                    "target": "0x03",
                    "max": "0x06",
                    "baseFeeUpdateFraction": "0x32f0ed"
                },
                "Prague": {
                    "target": "0x06",
                    "max": "0x09",
                    "baseFeeUpdateFraction": "0x4c6964"
                }
            }
        },
        "_info": {
            "hash": "0x2a024f621bf058c68f638f7d7d926f85e63b72421457df7b683f6dcbc3a657be",
            "comment": "`execution-spec-tests` generated test",
            "filling-transition-tool": "Nethermind EVM version: 1.0.0.0",
            "description": "Test class documentation:\nTest gas consumption barely below the floor data cost (1 gas below).\n\nTest function documentation:\nTest executing a transaction that almost consumes the floor data cost.",
            "url": "https://github.com/ethereum/execution-spec-tests/blob/211edc30a7a50bf91edaa3e77c908d8866717ff3/tests/prague/eip7623_increase_calldata_cost/test_execution_gas.py#L132",
            "fixture_format": "state_test",
            "reference-spec": "https://github.com/ethereum/EIPs/blob/master/EIPS/eip-7623.md",
            "reference-spec-version": "9104d079c04737b1fec5f7150715f024d8028558"
        }
    },
    "tests/prague/eip7623_increase_calldata_cost/test_execution_gas.py::TestGasConsumptionBelowDataFloor::test_gas_consumption_below_data_floor[fork_Prague-state_test-exact_gas-type_4]": {
        "env": {
            "currentCoinbase": "0x2adc25665018aa1fe0e6bc666dac8fc2697ff9ba",
            "currentGasLimit": "0x016345785d8a0000",
            "currentNumber": "0x01",
            "currentTimestamp": "0x03e8",
            "currentRandom": "0x0000000000000000000000000000000000000000000000000000000000000000",
            "currentDifficulty": "0x00",
            "currentBaseFee": "0x07",
            "currentExcessBlobGas": "0x00"
        },
        "pre": {
            "0xa94f5374fce5edbc8e2a8697c15331677e6ebf0b": {
                "nonce": "0x00",
                "balance": "0x3635c9adc5dea00000",
                "code": "0x",
                "storage": {}
            },
            "0x0000000000000000000000000000000000001000": {
                "nonce": "0x01",
                "balance": "0x00",
                "code": "0x5b00",
                "storage": {}
            }
        },
        "transaction": {
            "nonce": "0x00",
            "maxPriorityFeePerGas": "0x00",
            "maxFeePerGas": "0x07",
            "gasLimit": [
                "0xf4ce"
            ],
            "to": "0x0000000000000000000000000000000000001000",
            "value": [
                "0x00"
            ],
            "data": [
                "0x010101010101010101010101010101010101010101010101010101010101010101010101010101010101010101010101010101010101010101010101010101010101010101010101010101010101010101010101010101010101010101010101010101010101010101010101010101010101010101010101010101010101010101010101010101010101010101010101010101010101010101010101010101010101010101010101010101010101010101010101010101010101010101010101010101010101010101010101010101010101010101010101010101010101010101010101010101010101010101010101010101010101010101010101010101010101010101010101010101010101010101010101010101010101010101010101010101010101010101010101010101010101010101010101010101010101010101010101010101010101010101010101010101010101010101010101010101010101010101010101010101010101010101010101010101010101010101010101010101010101010101010101010101010101010101010101010101010101010101010101010101010101010101010101010101010101010101010101010101010101010101010101010101010101010101010101010101010101010101010101010101010101010101010101010101010101010101010101010101010101010101010101010101010101010101010101010101010101010101010101010101010101010101010101010101010101010101010101010101010101010101010101010101010101010101010101010101010101010101010101010101010101010101010101010101010101010101010101010101010101010101010101010101010101010101010101010101010101010101010101010101010101010101010101010101010101010101010101010101010101010101010101010101010101010101010101010101010101010101010101010101010101010101010101010101010101010101010101010101010101010101010101010101010101010101010101010101010101010101010101010101010101010101010101010101010101010101010101010101010101010101010101010101010101010101010101010101010101010101010101010101010101010101010101010101010101010101010101010101010101010101010101010101010101010101010101010101010101010101010101010101010101010101010101010101010101010101010101010101010101010101010101010101010101010101010101010101010101010101010101010101010101010101010101010101010101010101010101010101010101010101010101010101010101010101010101010101010101010101010101010101010101010101010101010101010101010101000000"
            ],
            "accessLists": [
                []
            ],
            "authorizationList": [
                {
                    "chainId": "0x64",
                    "address": "0x0000000000000000000000000000000000000001",
                    "nonce": "0x00",
                    "v": "0x01",
                    "r": "0x090d17137b0c8a6af6c3badb455190deef72d1c565a5e06cb801245a1802ebdf",
                    "s": "0x91fb374ca0304169a3768225dddaf057659063c0ff5de43b2e45ff0281d659",
                    "yParity": "0x01",
                    "signer": "0x8a0a19589531694250d570040a0c4b74576919b8"
                }
            ],
            "sender": "0xa94f5374fce5edbc8e2a8697c15331677e6ebf0b",
            "secretKey": "0x45a915e4d060149eb4365960e6a7a45f334393093061116b197e3240065ff2d8"
        },
        "post": {
            "Prague": [
                {
                    "hash": "0x7463dfaad4cf5e95eb0e9d1ae91b6a8c5de15cafed49ab9586f02db063584480",
                    "logs": "0x1dcc4de8dec75d7aab85b567b6ccd41ad312451b948a7413f0a142fd40d49347",
                    "txbytes": "0x04f904d56480800782f4ce94000000000000000000000000000000000000100080b90414010101010101010101010101010101010101010101010101010101010101010101010101010101010101010101010101010101010101010101010101010101010101010101010101010101010101010101010101010101010101010101010101010101010101010101010101010101010101010101010101010101010101010101010101010101010101010101010101010101010101010101010101010101010101010101010101010101010101010101010101010101010101010101010101010101010101010101010101010101010101010101010101010101010101010101010101010101010101010101010101010101010101010101010101010101010101010101010101010101010101010101010101010101010101010101010101010101010101010101010101010101010101010101010101010101010101010101010101010101010101010101010101010101010101010101010101010101010101010101010101010101010101010101010101010101010101010101010101010101010101010101010101010101010101010101010101010101010101010101010101010101010101010101010101010101010101010101010101010101010101010101010101010101010101010101010101010101010101010101010101010101010101010101010101010101010101010101010101010101010101010101010101010101010101010101010101010101010101010101010101010101010101010101010101010101010101010101010101010101010101010101010101010101010101010101010101010101010101010101010101010101010101010101010101010101010101010101010101010101010101010101010101010101010101010101010101010101010101010101010101010101010101010101010101010101010101010101010101010101010101010101010101010101010101010101010101010101010101010101010101010101010101010101010101010101010101010101010101010101010101010101010101010101010101010101010101010101010101010101010101010101010101010101010101010101010101010101010101010101010101010101010101010101010101010101010101010101010101010101010101010101010101010101010101010101010101010101010101010101010101010101010101010101010101010101010101010101010101010101010101010101010101010101010101010101010101010101010101010101010101010101010101010101010101010101010101010101010101010101010101010101010101010101010101010101010101010101010101010101010101010101010101010101010101010101010101010101010101010101010101010101010101010101010101010101010101010101000000c0f85bf859649400000000000000000000000000000000000000018001a0090d17137b0c8a6af6c3badb455190deef72d1c565a5e06cb801245a1802ebdf9f91fb374ca0304169a3768225dddaf057659063c0ff5de43b2e45ff0281d65901a0fd91e769cf0ecb17453c6fc333b7f7dd3144620479b91375cf8ef384caf5d1f9a066532f9d939f4fa222109e58d9012ed483b312ed4a9396b199e21eb8c774499d",
                    "indexes": {
                        "data": 0,
                        "gas": 0,
                        "value": 0
                    },
                    "state": {
                        "0xa94f5374fce5edbc8e2a8697c15331677e6ebf0b": {
                            "nonce": "0x01",
                            "balance": "0x3635c9adc5de994e5e",
                            "code": "0x",
                            "storage": {}
                        },
                        "0x0000000000000000000000000000000000001000": {
                            "nonce": "0x01",
                            "balance": "0x00",
                            "code": "0x5b00",
                            "storage": {}
                        },
                        "0x8a0a19589531694250d570040a0c4b74576919b8": {
                            "nonce": "0x01",
                            "balance": "0x00",
                            "code": "0xef01000000000000000000000000000000000000000001",
                            "storage": {}
                        }
                    }
                }
            ]
        },
        "config": {
            "blobSchedule": {
                "Cancun": {
                    "target": "0x03",
                    "max": "0x06",
                    "baseFeeUpdateFraction": "0x32f0ed"
                },
                "Prague": {
                    "target": "0x06",
                    "max": "0x09",
                    "baseFeeUpdateFraction": "0x4c6964"
                }
            }
        },
        "_info": {
            "hash": "0x5a22439e375195cd6ab8d21eb5a6a08063c596be111cbe8aef63bebd5db5bcbf",
            "comment": "`execution-spec-tests` generated test",
            "filling-transition-tool": "Nethermind EVM version: 1.0.0.0",
            "description": "Test class documentation:\nTest gas consumption barely below the floor data cost (1 gas below).\n\nTest function documentation:\nTest executing a transaction that almost consumes the floor data cost.",
            "url": "https://github.com/ethereum/execution-spec-tests/blob/211edc30a7a50bf91edaa3e77c908d8866717ff3/tests/prague/eip7623_increase_calldata_cost/test_execution_gas.py#L132",
            "fixture_format": "state_test",
            "reference-spec": "https://github.com/ethereum/EIPs/blob/master/EIPS/eip-7623.md",
            "reference-spec-version": "9104d079c04737b1fec5f7150715f024d8028558"
        }
    }
}