{
    "tests/prague/eip7702_set_code_tx/test_gas.py::test_self_set_code_cost[fork_Prague-state_test-pre_authorized_False]": {
        "env": {
            "currentCoinbase": "0x2adc25665018aa1fe0e6bc666dac8fc2697ff9ba",
            "currentGasLimit": "0x016345785d8a0000",
            "currentNumber": "0x01",
            "currentTimestamp": "0x03e8",
            "currentRandom": "0x0000000000000000000000000000000000000000000000000000000000000000",
            "currentDifficulty": "0x00",
            "currentBaseFee": "0x07",
            "currentExcessBlobGas": "0x00"
        },
        "pre": {
            "0x0000000000000000000000000000000000001000": {
                "nonce": "0x01",
                "balance": "0x00",
                "code": "0x5a6000600060006000600073a94f5374fce5edbc8e2a8697c15331677e6ebf0b6000f15a905090036017900360015500",
                "storage": {}
            },
            "0x8a0a19589531694250d570040a0c4b74576919b8": {
                "nonce": "0x00",
                "balance": "0x3635c9adc5dea00000",
                "code": "0x",
                "storage": {}
            }
        },
        "transaction": {
            "nonce": "0x00",
            "maxPriorityFeePerGas": "0x00",
            "maxFeePerGas": "0x07",
            "gasLimit": [
                "0x0f4240"
            ],
            "to": "0x0000000000000000000000000000000000001000",
            "value": [
                "0x00"
            ],
            "data": [
                "0x"
            ],
            "accessLists": [
                []
            ],
            "authorizationList": [
                {
                    "chainId": 100,
                    "address": "0xa94f5374fce5edbc8e2a8697c15331677e6ebf0b",
                    "nonce": "0x00",
                    "v": "0x00",
                    "r": "0x38e3ca9c43f4402650fbd924da0d2e2a80911b6409a5dbac8928a5fcadfc5c00",
                    "s": "0x144d7fd69086b21f2c7ba19dda3c942579b152d24e19a98ded64a2f47867b1bb",
                    "yParity": "0x00",
                    "signer": "0xa94f5374fce5edbc8e2a8697c15331677e6ebf0b"
                }
            ],
            "sender": "0x8a0a19589531694250d570040a0c4b74576919b8",
            "secretKey": "0x9e7645d0cfd9c3a04eb7a9db59a4eb7d359f2e75c9164a9d6b9a7d54e1b6a36f"
        },
        "post": {
            "Prague": [
                {
                    "hash": "0x6e4a8e68bc22cb4e7d9c524c9aab8265971cfdc0839ffedb6ba96cd963aca0bf",
                    "logs": "0x1dcc4de8dec75d7aab85b567b6ccd41ad312451b948a7413f0a142fd40d49347",
                    "txbytes": "0x04f8c164808007830f42409400000000000000000000000000000000000010008080c0f85cf85a6494a94f5374fce5edbc8e2a8697c15331677e6ebf0b8080a038e3ca9c43f4402650fbd924da0d2e2a80911b6409a5dbac8928a5fcadfc5c00a0144d7fd69086b21f2c7ba19dda3c942579b152d24e19a98ded64a2f47867b1bb01a0f50a27292c021bed023d57ec02f34431bb541b8d74c6f16f4319a24ea3720535a05fd61e74e051f8321b1041789fdf6fa73e93056b38f1d0b9184c38a99919c1f8",
                    "indexes": {
                        "data": 0,
                        "gas": 0,
                        "value": 0
                    },
                    "state": {
                        "0x0000000000000000000000000000000000001000": {
                            "nonce": "0x01",
                            "balance": "0x00",
                            "code": "0x5a6000600060006000600073a94f5374fce5edbc8e2a8697c15331677e6ebf0b6000f15a905090036017900360015500",
                            "storage": {
                                "0x01": "0xc8"
                            }
                        },
                        "0x8a0a19589531694250d570040a0c4b74576919b8": {
                            "nonce": "0x01",
                            "balance": "0x3635c9adc5de98b31c",
                            "code": "0x",
                            "storage": {}
                        },
                        "0xa94f5374fce5edbc8e2a8697c15331677e6ebf0b": {
                            "nonce": "0x01",
                            "balance": "0x00",
                            "code": "0xef0100a94f5374fce5edbc8e2a8697c15331677e6ebf0b",
                            "storage": {}
                        },
                        "0x6bbe78ee9e474842dbd4ab4987b3cefe88426a92": {
                            "nonce": "0x00",
                            "balance": "0x074ce4",
                            "code": "0x",
                            "storage": {}
                        }
                    }
                }
            ]
        },
        "config": {
            "blobSchedule": {
                "Cancun": {
                    "target": "0x03",
                    "max": "0x06",
                    "baseFeeUpdateFraction": "0x32f0ed"
                },
                "Prague": {
                    "target": "0x06",
                    "max": "0x09",
                    "baseFeeUpdateFraction": "0x4c6964"
                }
            },
            "chainid": "0x64"
        },
        "_info": {
            "hash": "0xc1117c12bd89cab1bfcbb0971759c0ef63554aa9d444cf485a418f280dcfb5e2",
            "comment": "`execution-spec-tests` generated test",
            "filling-transition-tool": "Nethermind EVM version: 1.0.0.0",
            "description": "Test function documentation:\nTest set to code account access cost when it delegates to itself.",
            "url": "https://github.com/ethereum/execution-spec-tests/blob/7c1f4f84adb59b692ca088817d760c804822b23b/tests/prague/eip7702_set_code_tx/test_gas.py#L947",
            "fixture_format": "state_test",
            "reference-spec": "https://github.com/ethereum/EIPs/blob/master/EIPS/eip-7702.md",
            "reference-spec-version": "4334df83395693dc3f629bb43c18320d9e22e8c9"
        }
    },
    "tests/prague/eip7702_set_code_tx/test_gas.py::test_self_set_code_cost[fork_Prague-state_test-pre_authorized_True]": {
        "env": {
            "currentCoinbase": "0x2adc25665018aa1fe0e6bc666dac8fc2697ff9ba",
            "currentGasLimit": "0x016345785d8a0000",
            "currentNumber": "0x01",
            "currentTimestamp": "0x03e8",
            "currentRandom": "0x0000000000000000000000000000000000000000000000000000000000000000",
            "currentDifficulty": "0x00",
            "currentBaseFee": "0x07",
            "currentExcessBlobGas": "0x00"
        },
        "pre": {
            "0xa94f5374fce5edbc8e2a8697c15331677e6ebf0b": {
                "nonce": "0x01",
                "balance": "0x00",
                "code": "0xef0100a94f5374fce5edbc8e2a8697c15331677e6ebf0b",
                "storage": {}
            },
            "0x0000000000000000000000000000000000001000": {
                "nonce": "0x01",
                "balance": "0x00",
                "code": "0x5a6000600060006000600073a94f5374fce5edbc8e2a8697c15331677e6ebf0b6000f15a905090036017900360015500",
                "storage": {}
            },
            "0x8a0a19589531694250d570040a0c4b74576919b8": {
                "nonce": "0x00",
                "balance": "0x3635c9adc5dea00000",
                "code": "0x",
                "storage": {}
            }
        },
        "transaction": {
            "nonce": "0x00",
            "gasPrice": "0x0a",
            "gasLimit": [
                "0x0f4240"
            ],
            "to": "0x0000000000000000000000000000000000001000",
            "value": [
                "0x00"
            ],
            "data": [
                "0x"
            ],
            "sender": "0x8a0a19589531694250d570040a0c4b74576919b8",
            "secretKey": "0x9e7645d0cfd9c3a04eb7a9db59a4eb7d359f2e75c9164a9d6b9a7d54e1b6a36f"
        },
        "post": {
            "Prague": [
                {
                    "hash": "0x0094ea2748936bf1271150e5974d59ec8feffa5a7d3ef8aa40afb1b421b80cd1",
                    "logs": "0x1dcc4de8dec75d7aab85b567b6ccd41ad312451b948a7413f0a142fd40d49347",
                    "txbytes": "0xf861800a830f4240940000000000000000000000000000000000001000808081eba06c6bb5c08ec17aa32f0bbbb3acd0b8b7e49cc33f282b2aa3dacdedc80994f201a02c2fc4ae9d32bf06c4f0f5c0840ff796abc909f2cd288654c028b3b0d7fb0f14",
                    "indexes": {
                        "data": 0,
                        "gas": 0,
                        "value": 0
                    },
                    "state": {
                        "0xa94f5374fce5edbc8e2a8697c15331677e6ebf0b": {
                            "nonce": "0x01",
                            "balance": "0x00",
                            "code": "0xef0100a94f5374fce5edbc8e2a8697c15331677e6ebf0b",
                            "storage": {}
                        },
                        "0x0000000000000000000000000000000000001000": {
                            "nonce": "0x01",
                            "balance": "0x00",
                            "code": "0x5a6000600060006000600073a94f5374fce5edbc8e2a8697c15331677e6ebf0b6000f15a905090036017900360015500",
                            "storage": {
                                "0x01": "0x0a8c"
                            }
                        },
                        "0x8a0a19589531694250d570040a0c4b74576919b8": {
                            "nonce": "0x01",
                            "balance": "0x3635c9adc5de990110",
                            "code": "0x",
                            "storage": {}
                        },
                        "0x2adc25665018aa1fe0e6bc666dac8fc2697ff9ba": {
                            "nonce": "0x00",
                            "balance": "0x021948",
                            "code": "0x",
                            "storage": {}
                        },
                        "0x6bbe78ee9e474842dbd4ab4987b3cefe88426a92": {
                            "nonce": "0x00",
                            "balance": "0x04e5a8",
                            "code": "0x",
                            "storage": {}
                        }
                    }
                }
            ]
        },
        "config": {
            "blobSchedule": {
                "Cancun": {
                    "target": "0x03",
                    "max": "0x06",
                    "baseFeeUpdateFraction": "0x32f0ed"
                },
                "Prague": {
                    "target": "0x06",
                    "max": "0x09",
                    "baseFeeUpdateFraction": "0x4c6964"
                }
            },
            "chainid": "0x64"
        },
        "_info": {
            "hash": "0xa4452fbcc6aec048ae83657edae36f3ec2bf47389d28faa7554ba0922fcb58f5",
            "comment": "`execution-spec-tests` generated test",
            "filling-transition-tool": "Nethermind EVM version: 1.0.0.0",
            "description": "Test function documentation:\nTest set to code account access cost when it delegates to itself.",
            "url": "https://github.com/ethereum/execution-spec-tests/blob/7c1f4f84adb59b692ca088817d760c804822b23b/tests/prague/eip7702_set_code_tx/test_gas.py#L947",
            "fixture_format": "state_test",
            "reference-spec": "https://github.com/ethereum/EIPs/blob/master/EIPS/eip-7702.md",
            "reference-spec-version": "4334df83395693dc3f629bb43c18320d9e22e8c9"
        }
    }
}