{
    "tests/prague/eip7702_set_code_tx/test_gas.py::test_self_set_code_cost[fork_Prague-state_test-pre_authorized_False]": {
        "env": {
            "currentCoinbase": "0x2adc25665018aa1fe0e6bc666dac8fc2697ff9ba",
            "currentGasLimit": "0x016345785d8a0000",
            "currentNumber": "0x01",
            "currentTimestamp": "0x03e8",
            "currentRandom": "0x0000000000000000000000000000000000000000000000000000000000000000",
            "currentDifficulty": "0x00",
            "currentBaseFee": "0x07",
            "currentExcessBlobGas": "0x00"
        },
        "pre": {
            "0x0000000000000000000000000000000000001000": {
                "nonce": "0x01",
                "balance": "0x00",
                "code": "0x5a6000600060006000600073a94f5374fce5edbc8e2a8697c15331677e6ebf0b6000f15a905090036017900360015500",
                "storage": {}
            },
            "0x8a0a19589531694250d570040a0c4b74576919b8": {
                "nonce": "0x00",
                "balance": "0x3635c9adc5dea00000",
                "code": "0x",
                "storage": {}
            }
        },
        "transaction": {
            "nonce": "0x00",
            "maxPriorityFeePerGas": "0x00",
            "maxFeePerGas": "0x07",
            "gasLimit": [
                "0x0f4240"
            ],
            "to": "0x0000000000000000000000000000000000001000",
            "value": [
                "0x00"
            ],
            "data": [
                "0x"
            ],
            "accessLists": [
                []
            ],
            "authorizationList": [
                {
                    "chainId": "0x00",
                    "address": "0xa94f5374fce5edbc8e2a8697c15331677e6ebf0b",
                    "nonce": "0x00",
                    "v": "0x00",
                    "r": "0x54c7c92b1eede176959eefeb0ccce5c0e794991f16c1e8ac01700d162eb563bf",
                    "s": "0x71b8d0e049596a2602ef18ca11a6d1c3e6a6ee21394b652ac0ad91533ac3a772",
                    "yParity": "0x00",
                    "signer": "0xa94f5374fce5edbc8e2a8697c15331677e6ebf0b"
                }
            ],
            "sender": "0x8a0a19589531694250d570040a0c4b74576919b8",
            "secretKey": "0x9e7645d0cfd9c3a04eb7a9db59a4eb7d359f2e75c9164a9d6b9a7d54e1b6a36f"
        },
        "post": {
            "Prague": [
                {
                    "hash": "0xc21aacb9175f03c8ef846acbb631fbc37495e2ef3d0afe286680a8a6ca67d674",
                    "logs": "0x1dcc4de8dec75d7aab85b567b6ccd41ad312451b948a7413f0a142fd40d49347",
                    "txbytes": "0x04f8c164808007830f42409400000000000000000000000000000000000010008080c0f85cf85a8094a94f5374fce5edbc8e2a8697c15331677e6ebf0b8080a054c7c92b1eede176959eefeb0ccce5c0e794991f16c1e8ac01700d162eb563bfa071b8d0e049596a2602ef18ca11a6d1c3e6a6ee21394b652ac0ad91533ac3a77201a0f9facfcc95af72ae5c57229d35040ab2069736e956161387283e8c81165941cfa04ba7396554a7bd90afbb6f919764f9b7cc4348e90c4177eb4d323920e2f9336a",
                    "indexes": {
                        "data": 0,
                        "gas": 0,
                        "value": 0
                    },
                    "state": {
                        "0x0000000000000000000000000000000000001000": {
                            "nonce": "0x01",
                            "balance": "0x00",
                            "code": "0x5a6000600060006000600073a94f5374fce5edbc8e2a8697c15331677e6ebf0b6000f15a905090036017900360015500",
                            "storage": {
                                "0x01": "0xc8"
                            }
                        },
                        "0x8a0a19589531694250d570040a0c4b74576919b8": {
                            "nonce": "0x01",
                            "balance": "0x3635c9adc5de98b31c",
                            "code": "0x",
                            "storage": {}
                        },
                        "0xa94f5374fce5edbc8e2a8697c15331677e6ebf0b": {
                            "nonce": "0x01",
                            "balance": "0x00",
                            "code": "0xef0100a94f5374fce5edbc8e2a8697c15331677e6ebf0b",
                            "storage": {}
                        }
                    }
                }
            ]
        },
        "config": {
            "blobSchedule": {
                "Cancun": {
                    "target": "0x03",
                    "max": "0x06",
                    "baseFeeUpdateFraction": "0x32f0ed"
                },
                "Prague": {
                    "target": "0x06",
                    "max": "0x09",
                    "baseFeeUpdateFraction": "0x4c6964"
                }
            }
        },
        "_info": {
            "hash": "0x24cdd700de3a6574b8b313f764e6a10c37b129c8227759015eb8126b794908d9",
            "comment": "`execution-spec-tests` generated test",
            "filling-transition-tool": "Nethermind EVM version: 1.0.0.0",
            "description": "Test function documentation:\nTest set to code account access cost when it delegates to itself.",
            "url": "https://github.com/ethereum/execution-spec-tests/blob/5670278c8fb64d59797ce7b18d17a10ed03d5c81/tests/prague/eip7702_set_code_tx/test_gas.py#L957",
            "fixture_format": "state_test",
            "reference-spec": "https://github.com/ethereum/EIPs/blob/master/EIPS/eip-7702.md",
            "reference-spec-version": "4334df83395693dc3f629bb43c18320d9e22e8c9"
        }
    },
    "tests/prague/eip7702_set_code_tx/test_gas.py::test_self_set_code_cost[fork_Prague-state_test-pre_authorized_True]": {
        "env": {
            "currentCoinbase": "0x2adc25665018aa1fe0e6bc666dac8fc2697ff9ba",
            "currentGasLimit": "0x016345785d8a0000",
            "currentNumber": "0x01",
            "currentTimestamp": "0x03e8",
            "currentRandom": "0x0000000000000000000000000000000000000000000000000000000000000000",
            "currentDifficulty": "0x00",
            "currentBaseFee": "0x07",
            "currentExcessBlobGas": "0x00"
        },
        "pre": {
            "0xa94f5374fce5edbc8e2a8697c15331677e6ebf0b": {
                "nonce": "0x01",
                "balance": "0x00",
                "code": "0xef0100a94f5374fce5edbc8e2a8697c15331677e6ebf0b",
                "storage": {}
            },
            "0x0000000000000000000000000000000000001000": {
                "nonce": "0x01",
                "balance": "0x00",
                "code": "0x5a6000600060006000600073a94f5374fce5edbc8e2a8697c15331677e6ebf0b6000f15a905090036017900360015500",
                "storage": {}
            },
            "0x8a0a19589531694250d570040a0c4b74576919b8": {
                "nonce": "0x00",
                "balance": "0x3635c9adc5dea00000",
                "code": "0x",
                "storage": {}
            }
        },
        "transaction": {
            "nonce": "0x00",
            "gasPrice": "0x0a",
            "gasLimit": [
                "0x0f4240"
            ],
            "to": "0x0000000000000000000000000000000000001000",
            "value": [
                "0x00"
            ],
            "data": [
                "0x"
            ],
            "sender": "0x8a0a19589531694250d570040a0c4b74576919b8",
            "secretKey": "0x9e7645d0cfd9c3a04eb7a9db59a4eb7d359f2e75c9164a9d6b9a7d54e1b6a36f"
        },
        "post": {
            "Prague": [
                {
                    "hash": "0x5eff080154c4d38781794e24450b6a87ca473d613fe3f4a4e84244f00b8a0e9c",
                    "logs": "0x1dcc4de8dec75d7aab85b567b6ccd41ad312451b948a7413f0a142fd40d49347",
                    "txbytes": "0xf861800a830f4240940000000000000000000000000000000000001000808081eba06c6bb5c08ec17aa32f0bbbb3acd0b8b7e49cc33f282b2aa3dacdedc80994f201a02c2fc4ae9d32bf06c4f0f5c0840ff796abc909f2cd288654c028b3b0d7fb0f14",
                    "indexes": {
                        "data": 0,
                        "gas": 0,
                        "value": 0
                    },
                    "state": {
                        "0xa94f5374fce5edbc8e2a8697c15331677e6ebf0b": {
                            "nonce": "0x01",
                            "balance": "0x00",
                            "code": "0xef0100a94f5374fce5edbc8e2a8697c15331677e6ebf0b",
                            "storage": {}
                        },
                        "0x0000000000000000000000000000000000001000": {
                            "nonce": "0x01",
                            "balance": "0x00",
                            "code": "0x5a6000600060006000600073a94f5374fce5edbc8e2a8697c15331677e6ebf0b6000f15a905090036017900360015500",
                            "storage": {
                                "0x01": "0x0a8c"
                            }
                        },
                        "0x8a0a19589531694250d570040a0c4b74576919b8": {
                            "nonce": "0x01",
                            "balance": "0x3635c9adc5de990110",
                            "code": "0x",
                            "storage": {}
                        },
                        "0x2adc25665018aa1fe0e6bc666dac8fc2697ff9ba": {
                            "nonce": "0x00",
                            "balance": "0x021948",
                            "code": "0x",
                            "storage": {}
                        }
                    }
                }
            ]
        },
        "config": {
            "blobSchedule": {
                "Cancun": {
                    "target": "0x03",
                    "max": "0x06",
                    "baseFeeUpdateFraction": "0x32f0ed"
                },
                "Prague": {
                    "target": "0x06",
                    "max": "0x09",
                    "baseFeeUpdateFraction": "0x4c6964"
                }
            }
        },
        "_info": {
            "hash": "0xce0f31befe244b5b6380d8989e6354aaf12c206d8da1e3e1a8cf486245d6673b",
            "comment": "`execution-spec-tests` generated test",
            "filling-transition-tool": "Nethermind EVM version: 1.0.0.0",
            "description": "Test function documentation:\nTest set to code account access cost when it delegates to itself.",
            "url": "https://github.com/ethereum/execution-spec-tests/blob/5670278c8fb64d59797ce7b18d17a10ed03d5c81/tests/prague/eip7702_set_code_tx/test_gas.py#L957",
            "fixture_format": "state_test",
            "reference-spec": "https://github.com/ethereum/EIPs/blob/master/EIPS/eip-7702.md",
            "reference-spec-version": "4334df83395693dc3f629bb43c18320d9e22e8c9"
        }
    }
}